:100000000C942A000C9447000C9447000C94470071
:100010000C9447000C9447000C9447000C94470044
:100020000C9447000C9447000C9447000C94470034
:100030000C9447000C9447000C9447000C94470024
:100040000C9447000C9447000C9447000C94470014
:100050000C94470011241FBECFE5D4E0DEBFCDBF16
:1000600010E0A0E6B0E0EEECF0E002C005900D92EA
:10007000A236B107D9F710E0A2E6B0E001C01D92A8
:10008000A436B107E1F70E9449000C9465000C9476
:1000900000008FEF87BB41E050E068EC70E00FC0DC
:1000A00028B3CA01880F991F282B28BB84EF91E041
:1000B000FB013197F1F70197D9F74E5F5F4F493058
:0E00C000510571F741E050E0FACFF894FFCF00
:0200CE0001002F
:00000001FF
